{"abi":[{"type":"constructor","inputs":[{"name":"_agentRegistry","type":"address","internalType":"address"}],"stateMutability":"nonpayable"},{"type":"receive","stateMutability":"payable"},{"type":"function","name":"agentRegistry","inputs":[],"outputs":[{"name":"","type":"address","internalType":"contract AgentRegistry"}],"stateMutability":"view"},{"type":"function","name":"balances","inputs":[{"name":"","type":"address","internalType":"address"}],"outputs":[{"name":"","type":"uint256","internalType":"uint256"}],"stateMutability":"view"},{"type":"function","name":"deposit","inputs":[],"outputs":[],"stateMutability":"payable"},{"type":"function","name":"gameSettlement","inputs":[],"outputs":[{"name":"","type":"address","internalType":"address"}],"stateMutability":"view"},{"type":"function","name":"getBalance","inputs":[{"name":"agent","type":"address","internalType":"address"}],"outputs":[{"name":"","type":"uint256","internalType":"uint256"}],"stateMutability":"view"},{"type":"function","name":"getContractBalance","inputs":[],"outputs":[{"name":"","type":"uint256","internalType":"uint256"}],"stateMutability":"view"},{"type":"function","name":"getGamePlayers","inputs":[{"name":"gameId","type":"bytes32","internalType":"bytes32"}],"outputs":[{"name":"","type":"address[]","internalType":"address[]"}],"stateMutability":"view"},{"type":"function","name":"getGamePot","inputs":[{"name":"gameId","type":"bytes32","internalType":"bytes32"}],"outputs":[{"name":"","type":"uint256","internalType":"uint256"}],"stateMutability":"view"},{"type":"function","name":"hasWagered","inputs":[{"name":"gameId","type":"bytes32","internalType":"bytes32"},{"name":"agent","type":"address","internalType":"address"}],"outputs":[{"name":"","type":"bool","internalType":"bool"}],"stateMutability":"view"},{"type":"function","name":"isGameRefunded","inputs":[{"name":"gameId","type":"bytes32","internalType":"bytes32"}],"outputs":[{"name":"","type":"bool","internalType":"bool"}],"stateMutability":"view"},{"type":"function","name":"isGameSettled","inputs":[{"name":"gameId","type":"bytes32","internalType":"bytes32"}],"outputs":[{"name":"","type":"bool","internalType":"bool"}],"stateMutability":"view"},{"type":"function","name":"owner","inputs":[],"outputs":[{"name":"","type":"address","internalType":"address"}],"stateMutability":"view"},{"type":"function","name":"placeWager","inputs":[{"name":"gameId","type":"bytes32","internalType":"bytes32"}],"outputs":[],"stateMutability":"nonpayable"},{"type":"function","name":"protocolFeePercent","inputs":[],"outputs":[{"name":"","type":"uint256","internalType":"uint256"}],"stateMutability":"view"},{"type":"function","name":"refundGame","inputs":[{"name":"gameId","type":"bytes32","internalType":"bytes32"}],"outputs":[],"stateMutability":"nonpayable"},{"type":"function","name":"setGameSettlement","inputs":[{"name":"_gameSettlement","type":"address","internalType":"address"}],"outputs":[],"stateMutability":"nonpayable"},{"type":"function","name":"setProtocolFee","inputs":[{"name":"_feePercent","type":"uint256","internalType":"uint256"}],"outputs":[],"stateMutability":"nonpayable"},{"type":"function","name":"setWagerAmount","inputs":[{"name":"_wagerAmount","type":"uint256","internalType":"uint256"}],"outputs":[],"stateMutability":"nonpayable"},{"type":"function","name":"settleGame","inputs":[{"name":"gameId","type":"bytes32","internalType":"bytes32"},{"name":"winners","type":"address[]","internalType":"address[]"}],"outputs":[],"stateMutability":"nonpayable"},{"type":"function","name":"transferOwnership","inputs":[{"name":"newOwner","type":"address","internalType":"address"}],"outputs":[],"stateMutability":"nonpayable"},{"type":"function","name":"wagerAmount","inputs":[],"outputs":[{"name":"","type":"uint256","internalType":"uint256"}],"stateMutability":"view"},{"type":"function","name":"withdraw","inputs":[{"name":"amount","type":"uint256","internalType":"uint256"}],"outputs":[],"stateMutability":"nonpayable"},{"type":"function","name":"withdrawProtocolFees","inputs":[],"outputs":[],"stateMutability":"nonpayable"},{"type":"event","name":"Deposited","inputs":[{"name":"agent","type":"address","indexed":true,"internalType":"address"},{"name":"amount","type":"uint256","indexed":false,"internalType":"uint256"},{"name":"newBalance","type":"uint256","indexed":false,"internalType":"uint256"}],"anonymous":false},{"type":"event","name":"GameRefunded","inputs":[{"name":"gameId","type":"bytes32","indexed":true,"internalType":"bytes32"},{"name":"playersRefunded","type":"uint256","indexed":false,"internalType":"uint256"}],"anonymous":false},{"type":"event","name":"GameSettled","inputs":[{"name":"gameId","type":"bytes32","indexed":true,"internalType":"bytes32"},{"name":"winners","type":"address[]","indexed":false,"internalType":"address[]"},{"name":"winningsPerPlayer","type":"uint256","indexed":false,"internalType":"uint256"},{"name":"protocolFee","type":"uint256","indexed":false,"internalType":"uint256"}],"anonymous":false},{"type":"event","name":"ProtocolFeeUpdated","inputs":[{"name":"oldFee","type":"uint256","indexed":false,"internalType":"uint256"},{"name":"newFee","type":"uint256","indexed":false,"internalType":"uint256"}],"anonymous":false},{"type":"event","name":"WagerAmountUpdated","inputs":[{"name":"oldAmount","type":"uint256","indexed":false,"internalType":"uint256"},{"name":"newAmount","type":"uint256","indexed":false,"internalType":"uint256"}],"anonymous":false},{"type":"event","name":"WagerPlaced","inputs":[{"name":"gameId","type":"bytes32","indexed":true,"internalType":"bytes32"},{"name":"agent","type":"address","indexed":true,"internalType":"address"},{"name":"amount","type":"uint256","indexed":false,"internalType":"uint256"}],"anonymous":false},{"type":"event","name":"Withdrawn","inputs":[{"name":"agent","type":"address","indexed":true,"internalType":"address"},{"name":"amount","type":"uint256","indexed":false,"internalType":"uint256"},{"name":"newBalance","type":"uint256","indexed":false,"internalType":"uint256"}],"anonymous":false}],"bytecode":{"object":"0x60803461008957601f61113738819003918201601f19168301916001600160401b0383118484101761008d5780849260209460405283398101031261008957516001600160a01b0381169081900361008957678ac7230489e80000600355600560045560018060a01b031933815f5416175f55600254161760025560405161109590816100a28239f35b5f80fd5b634e487b7160e01b5f52604160045260245ffdfe60806040818152600480361015610074575b509050361561001e575f80fd5b335f526005602052805f20610034348254610e44565b9055335f5260056020527f73a19dd210f1a7f902193214c0ee91dd35ee5b4d920cba8d519eca65a7b488ca815f20549180519234845260208401523392a2005b5f92833560e01c9081630d1cfcae14610e055750806327e235e3146101db5780632d1b2c0614610db35780632e1a7d4d14610ceb57806332fb035c14610cc25780633c26173414610c1857806349de470414610bf95780636512859814610bac5780636f9fb98a14610b9157806377d698ba14610b6a578063787dce3d14610ad35780637ac20cf114610aa1578063857ae4191461086d5780638795cccb146107c95780638da5cb5b146107a1578063984c1f3d14610597578063b024670814610486578063d0e30db0146102e6578063d6766eef146102b7578063d6e6eb9f1461029a578063f2fde38b14610217578063f8b2cb4f146101db5763ffd924a60361001157346101d75760203660031901126101d7577fafdc20ac1d421ba9009d06290160ca77210434bbebe841d29af7367ab73bc45c9035916101c260018060a01b038554163314611026565b6003548151908152836020820152a160035580f35b8280fd5b5050346102135760203660031901126102135760209181906001600160a01b03610203610e2a565b1681526005845220549051908152f35b5080fd5b50346101d75760203660031901126101d757610231610e2a565b835491906001600160a01b039061024b3383861614611026565b169283156102655750506001600160a01b03191617815580f35b906020606492519162461bcd60e51b8352820152600f60248201526e496e76616c6964206164647265737360881b6044820152fd5b50346101d757826003193601126101d75760209250549051908152f35b50346101d75760203660031901126101d75760038260209460ff93358152600686522001541690519015158152f35b5091908160031936011261021357341561044b5733825260209060058252808320610312348254610e44565b9055600254815163c3c5a54760e01b815233868201526001600160a01b03909116908381602481855afa908115610441578591610407575b501561038e575b507f73a19dd210f1a7f902193214c0ee91dd35ee5b4d920cba8d519eca65a7b488ca9033845260058352808420548151933485528401523392a280f35b803b15610403578380916064845180948193630457067b60e31b8352338b8401528760248401528160448401525af180156103f957156103515767ffffffffffffffff81949294116103e6578352919250825f610351565b634e487b7160e01b825260418552602482fd5b82513d86823e3d90fd5b8380fd5b90508381813d831161043a575b61041e8183610e65565b8101031261043657518015158103610436575f61034a565b8480fd5b503d610414565b83513d87823e3d90fd5b5162461bcd60e51b815260208184015260166024820152754d757374206465706f73697420736f6d657468696e6760501b6044820152606490fd5b50346101d757602090816003193601126104035780359260018060a01b03916104b483600154163314610f8e565b84865260068452818620600391828201908154906104d560ff831615610fda565b60ff8260081c16610561575061ff001916610100179055600101805493875b8581106105295788887f2d529b69802c34e455e4ac64a23bd6969039ed14c134027ed2903cbc04c0952c89898951908152a280f35b61055c9084548361053a8387610f65565b905490881b1c168b5260058952610555878c20918254610e44565b9055611018565b6104f4565b855162461bcd60e51b8152908101889052601060248201526f105b1c9958591e481c99599d5b99195960821b6044820152606490fd5b50919034610213576020806003193601126101d7578335903384526005815282842054600390815480911061075e57838652600690818452600286882001338852845260ff86882054166107295784875281845260ff838789200154166106ef5784875281845261061360ff84888a20015460081c1615610f25565b33875260058452610628868820918254610e9b565b90558154848752818452610640868820918254610e44565b9055838652808352600185872001805490680100000000000000008210156106dc57816106969160017f6d71ed1db21e0b5d0289b076b8d7ecdaf4b86e36dbdc5c3fd2cc468ece7c564597969594018155610f65565b81546001600160a01b0391851b91821b1916339182901b179091558588529083528587208188526002018352858720805460ff191660011790559054945194855293a380f35b634e487b7160e01b885260418952602488fd5b855162461bcd60e51b8152808901859052601460248201527311d85b5948185b1c9958591e481cd95d1d1b195960621b6044820152606490fd5b855162461bcd60e51b8152808901859052600f60248201526e105b1c9958591e481dd859d95c9959608a1b6044820152606490fd5b845162461bcd60e51b8152808801849052601e60248201527f496e73756666696369656e742062616c616e636520666f7220776167657200006044820152606490fd5b505034610213578160031936011261021357905490516001600160a01b039091168152602090f35b5090346101d757826003193601126101d75782546001600160a01b03919082166107f4338214611026565b8085526005602052818520549384156108345750846108319481948280958195825260056020528120558254165af161082b610ea8565b50610ee7565b80f35b606490602084519162461bcd60e51b835282015260136024820152724e6f206665657320746f20776974686472617760681b6044820152fd5b5091903461021357806003193601126102135782359060249081359067ffffffffffffffff95868311610a9d5736602384011215610a9d5782810135968711610a9d57600590368589841b86010111610a99576001805460ff99906001600160a01b03906108de9082163314610f8e565b888a5260209360068552868b20600381019061090d82549e8f61090382821615610fda565b60081c1615610f25565b549c8d15610a64578415610a2e5760ff19168517905580548c810291908d830403610a1c57509161094560648293959404809d610e9b565b04948a5b8281106109e55750838b54168b528452858a206109678c8254610e44565b90558551978160608a0160608b5252608089019701928a905b8282106109be578b8b7f3a5eb24acb43171a514dfd2ed6c746dd03370714f7b0d879fe720d75281220528f8d8d81928e8e8e8501528301520390a280f35b909192939788358281168091036109e15781528501978501939291830190610980565b8c80fd5b898183969495961b8a0101358381168091036109e15790610a13918d52828752888d20610555898254610e44565b93929193610949565b634e487b7160e01b8c5260119052888bfd5b885162461bcd60e51b81528084018890526011818d0152704d75737420686176652077696e6e65727360781b6044820152606490fd5b885162461bcd60e51b81528084018890526010818d01526f4e6f20706f7420746f20736574746c6560801b6044820152606490fd5b8680fd5b8580fd5b50346101d75760203660031901126101d75760038260209460ff933581526006865220015460081c1690519015158152f35b50346101d75760203660031901126101d757803591610afc60018060a01b038554163314611026565b60148311610b38577fb404cac19fb1cbeff98d325795b08886e3cd8fe8cb1a2f193aac66f13fb239c39082548151908152846020820152a15580f35b906020606492519162461bcd60e51b8352820152600c60248201526b08ccaca40e8dede40d0d2ced60a31b6044820152fd5b50346101d75760203660031901126101d75760209282913581526006845220549051908152f35b50503461021357816003193601126102135751478152602090f35b50346101d757816003193601126101d7576024356001600160a01b03811691908290036104035760209360ff92849235825260068652600283832001908252855220541690519015158152f35b5050346102135781600319360112610213576020906003549051908152f35b50346101d75760209081600319360112610403573583526006815281832082516001918201805480835290865283862082850196939491879190855b818110610ca65750505082610c6a910383610e65565b8451948186019282875251809352850195925b828110610c8a5785870386f35b83516001600160a01b0316875295810195928101928401610c7d565b82546001600160a01b0316845292840192918701918701610c54565b50503461021357816003193601126102135760015490516001600160a01b039091168152602090f35b5090346101d7576020806003193601126104035782359233855260058252838386205410610d7b5750907f92ccf450a286a957af52509bc1c9939d1a6a481783e142e41e2499f0bb66ebc69133855260058152818520610d4c858254610e9b565b9055610d618580808088335af161082b610ea8565b33855260058152818520549082519485528401523392a280f35b915162461bcd60e51b8152918201526014602482015273496e73756666696369656e742062616c616e636560601b6044820152606490fd5b8334610e02576020366003190112610e0257610dcd610e2a565b81546001600160a01b039190610de69083163314611026565b166bffffffffffffffffffffffff60a01b600154161760015580f35b80fd5b8490346102135781600319360112610213576002546001600160a01b03168152602090f35b600435906001600160a01b0382168203610e4057565b5f80fd5b91908201809211610e5157565b634e487b7160e01b5f52601160045260245ffd5b90601f8019910116810190811067ffffffffffffffff821117610e8757604052565b634e487b7160e01b5f52604160045260245ffd5b91908203918211610e5157565b3d15610ee2573d9067ffffffffffffffff8211610e875760405191610ed7601f8201601f191660200184610e65565b82523d5f602084013e565b606090565b15610eee57565b60405162461bcd60e51b815260206004820152600f60248201526e151c985b9cd9995c8819985a5b1959608a1b6044820152606490fd5b15610f2c57565b60405162461bcd60e51b815260206004820152601160248201527011d85b59481dd85cc81c99599d5b991959607a1b6044820152606490fd5b8054821015610f7a575f5260205f2001905f90565b634e487b7160e01b5f52603260045260245ffd5b15610f9557565b60405162461bcd60e51b815260206004820152601860248201527f4f6e6c7920736574746c656d656e7420636f6e747261637400000000000000006044820152606490fd5b15610fe157565b60405162461bcd60e51b815260206004820152600f60248201526e105b1c9958591e481cd95d1d1b1959608a1b6044820152606490fd5b5f198114610e515760010190565b1561102d57565b60405162461bcd60e51b815260206004820152600a60248201526927b7363c9037bbb732b960b11b6044820152606490fdfea2646970667358221220914c9bf9f3fcdaff85c8a5fa017658c9ece6f2b37034d8a295a9f330511222ba64736f6c63430008140033","linkReferences":{}},"methodIdentifiers":{"agentRegistry()":"0d1cfcae","balances(address)":"27e235e3","deposit()":"d0e30db0","gameSettlement()":"32fb035c","getBalance(address)":"f8b2cb4f","getContractBalance()":"6f9fb98a","getGamePlayers(bytes32)":"3c261734","getGamePot(bytes32)":"77d698ba","hasWagered(bytes32,address)":"65128598","isGameRefunded(bytes32)":"7ac20cf1","isGameSettled(bytes32)":"d6766eef","owner()":"8da5cb5b","placeWager(bytes32)":"984c1f3d","protocolFeePercent()":"d6e6eb9f","refundGame(bytes32)":"b0246708","setGameSettlement(address)":"2d1b2c06","setProtocolFee(uint256)":"787dce3d","setWagerAmount(uint256)":"ffd924a6","settleGame(bytes32,address[])":"857ae419","transferOwnership(address)":"f2fde38b","wagerAmount()":"49de4704","withdraw(uint256)":"2e1a7d4d","withdrawProtocolFees()":"8795cccb"},"id":23}